:100000000C94FE000C9424010C9424010C94240103
:100010000C9424010C9424010C9424010C942401CC
:100020000C9424010C9424010C9424010C942401BC
:100030000C9424010C9424010C9424010C942401AC
:100040000C9424010C9424010C9424010C9424019C
:100050000C9424010C9424010C9424010C9424018C
:100060000C9424010C9424010C9424010C9424017C
:100070000C9424010C9424010C9424010C9424016C
:100080000C9424010C9424010C9424010C9424015C
:100090000C9424010C9424010C9424010C9424014C
:1000A0000C9424010C9424010C9424010C9424013C
:1000B0000C9424010C9424010C9424010C9424012C
:1000C0000C9424010C9424010C9424010C9424011C
:1000D0000C9424010C9424010C9424010C9424010C
:1000E0000C9424010C9424010C9424010C942401FC
:1000F0000C9424010C9424010C9424010C942401EC
:100100000C9424010C9424010C9424010C942401DB
:100110000C9424010C9424010C9424010C942401CB
:100120000C9424010C9424010C9424010C942401BB
:100130000C9424010C9424010C9424010C942401AB
:100140000C9424010C9424010C9424010C9424019B
:100150000C9424010C9424010C9424010C9424018B
:100160000C9424010C9424010C9424010C9424017B
:100170000C9424010C9424010C9424010C9424016B
:100180000C9424010C9424010C9424010C9424015B
:100190000C9424010C9424010C9424010C9424014B
:1001A0000C9424010C9424010C9424010C9424013B
:1001B0000C9424010C9424010C9424010C9424012B
:1001C0000C9424010C9424010C9424010C9424011B
:1001D0000C9424010C9424010C9424010C9424010B
:1001E0000C9424010C9424010C9424010C942401FB
:1001F0000C9424010C9424010C94240111241FBE9E
:10020000CFEFCDBFDFE3DEBF00E00CBF18BE19BEED
:100210001ABE1BBE10E2A0E0B0E2EEE3F3E000E0A5
:100220000BBF02C007900D92A030B107D9F71BBEDB
:1002300020E2A0E0B0E201C01D92A030B207E1F7D9
:100240000E9492010C949D010C94000080E8809320
:1002500000011092160188E88093120180E18093DA
:10026000130184E28093180182E0809319011092B7
:100270001A0180EA80931C0189E080931D0110928D
:100280001E0184E880931001089580E380930202A8
:1002900084E0809304028093010281E0809302064F
:1002A000809320021092210295E0909300028093A7
:1002B00003020895109220081092210889E190E02D
:1002C000809326089093270885E08093000880ECAF
:1002D0008093800180E280938101089588E080937B
:1002E000610684E08093620688E18093A40983E03C
:1002F0008093A50983E88093A60980ED8093A709E0
:10030000089582E080935000E1E5F0E0808181FF74
:10031000FDCF88ED84BF91E09093400084BF1092A0
:10032000410008950E9481010E9445010E945A01E6
:0E0330000E946E010E942601FFCFF894FFCFBD
:00000001FF
